:100000000C945D000C947C000C947C000C947C009F
:100010000C947C000C947C000C947C000C947C0070
:100020000C947C000C947C000C947C000C947C0060
:100030000C947C000C947C000C947C000C947C0050
:100040000C947E000C947C000C947C000C947C003E
:100050000C947C000C947C000C947C000C947C0030
:100060000C947C000C947C000C947C000C947C0020
:100070000C947C000C947C000C947C000C947C0010
:100080000C947C000C947C000C947C00084AD73BB8
:100090003BCE016E84BCBFFDC12F3D6C74319ABD57
:1000A00056833DDA3D00C77F11BED9E4BB4C3E917B
:1000B0006BAAAABE000000803F0011241FBECFEF34
:1000C000D0E1DEBFCDBF12E0A0E0B1E0EEE8FEE19E
:1000D00000E00BBF02C007900D92A830B107D9F71E
:1000E00012E0A8E0B2E001C01D92AE37B107E1F71F
:1000F0000E940A040C94450F0C9400001F920F926A
:100100000FB60F920BB60F9211242F933F934F937C
:100110005F936F937F938F939F93AF93BF93EF936F
:10012000FF93609108027091090280910A029091F8
:100130000B022FE632E143E05BE30E940609609385
:1001400008027093090280930A0290930B0283E8DD
:1001500082BFFF91EF91BF91AF919F918F917F915E
:100160006F915F914F913F912F910F900BBE0F9028
:100170000FBE0F901F901895982F84EA80937400FB
:100180008091740087FFFCCF80917100887F883058
:10019000D9F780ED8093730084E880937400809198
:1001A000740087FFFCCF80917100887F8831D9F778
:1001B0009093730084E8809374008091740087FFAB
:1001C000FCCF80917100887F8832D9F760937300EB
:1001D00084E8809374008091740087FFFCCF809145
:1001E0007100887F8832D9F784E98093740008957C
:1001F000982F84EA809374008091740087FFFCCF6D
:1002000080917100887F8830D9F780ED80937300EA
:1002100084E8809374008091740087FFFCCF809104
:100220007100887F8831D9F79093730084E88093B8
:1002300074008091740087FFFCCF80917100887FEB
:100240008832D9F784EA809374008091740087FF24
:10025000FCCF80917100887F8031D9F781ED809348
:10026000730084E8809374008091740087FFFCCF52
:1002700080917100887F8034D9F784E8809374007E
:100280008091740087FFFCCF80917100887F883552
:10029000D9F78091730094E99093740008958BE3EB
:1002A0000E94F800809345028CE30E94F80080933E
:1002B0006B028DE30E94F80080937D028EE30E9422
:1002C000F800809319028FE30E94F80080932202C5
:1002D00080E40E94F8008093340283E40E94F800D6
:1002E0008093560284E40E94F80080937C0285E4A7
:1002F0000E94F8008093180286E40E94F800809320
:10030000430287E40E94F8008093330288E40E944D
:10031000F8008093440208952F923F924F925F928B
:100320006F927F928F929F92AF92BF92CF92DF9205
:10033000EF92FF920F931F93CF93DF9322243324E6
:100340000E944F012091450280916B02522E44245D
:1003500090E0842995299093360280933502E090AD
:100360002702F09028020091290210912A02809120
:1003700035029091360261E070EC681B790B88279A
:1003800077FD8095982F0E94D90A9B01AC01C80186
:10039000B7010E9406096093270270932802809398
:1003A000290290932A0220917D0280911902722ED7
:1003B000662490E08629972990933602809335022F
:1003C000E0900C02F0900D0200910E0210910F02CD
:1003D0006091350270913602709561957F4F882744
:1003E00077FD8095982F0E94D90A9B01AC01C80126
:1003F000B7010E94060960930C0270930D0280936E
:100400000E0290930F022091220280913402922ECC
:10041000882490E0882999299093360280933502A8
:10042000E0903B02F0903C0200913D0210913E02B0
:100430006091350270913602882777FD8095982F5C
:100440000E94D90A9B01AC01C801B7010E940609AC
:1004500060933B0270933C0280933D0290933E0276
:100460002091560280917C02B22EAA2490E08A2923
:100470009B299093360280933502E0901402F0900D
:1004800015020091160210911702609135027091C9
:100490003602882777FD8095982F0E94D90A9B0104
:1004A000AC01C801B7010E94060960931402709361
:1004B00015028093160290931702209118028091E2
:1004C0004302D22ECC2490E08C299D2990933602B1
:1004D00080933502E0907402F090750200917602EC
:1004E000109177026091350270913602882777FD6E
:1004F0008095982F0E94D90A9B01AC01C801B701D1
:100500000E940609609374027093750280937602CC
:10051000909377022091330280914402D22FC0E061
:1005200090E08C2B9D2B9093360280933502E090C7
:100530003702F09038020091390210913A0260912E
:10054000350270913602882777FD8095982F0E949A
:10055000D90A9B01AC01C801B7010E94060960934A
:100560003702709338028093390290933A0288EEF2
:1005700093E0E0E9F1E03197F1F70197D1F70894C2
:10058000211C311C8AE02816310409F0D9CE609173
:100590002702709128028091290290912A0220E07E
:1005A00030E040E251E40E942D0A609327027093EC
:1005B00028028093290290932A0260910C02709184
:1005C0000D0280910E0290910F0220E030E040E297
:1005D00051E40E942D0A60930C0270930D028093E7
:1005E0000E0290930F0260913B0270913C02809149
:1005F0003D0290913E0220E030E040E251E40E9452
:100600002D0A60933B0270933C0280933D029093CD
:100610003E02609114027091150280911602909131
:10062000170220E030E040E251E40E942D0A60937E
:100630001402709315028093160290931702609132
:10064000740270917502809176029091770220E099
:1006500030E040E251E40E942D0A609374027093EE
:1006600075028093760290937702609137027091C1
:1006700038028091390290913A0220E030E040E265
:1006800051E40E942D0A60933702709338028093E0
:10069000390290933A028091270290912802A0910A
:1006A0002902B0912A0280932F0290933002A093E6
:1006B0003102B093320280910C0290910D02A09110
:1006C0000E02B0910F0280931A0290931B02A09326
:1006D0001C02B0931D0280913B0290913C02A091BC
:1006E0003D02B0913E0280936C0290936D02A09304
:1006F0006E02B0936F028091140290911502A09146
:100700001602B091170280932B0290932C02A093B3
:100710002D02B0932E028091740290917502A091E7
:100720007602B09177028093100290931102A09309
:100730001202B09313028091370290913802A09177
:100740003902B0913A0280933F0290934002A09305
:100750004102B0934202DF91CF911F910F91FF9020
:10076000EF90DF90CF90BF90AF909F908F907F9051
:100770006F905F904F903F902F9008955D9BFECFBC
:100780008CB908959C0197FF07C05D9BFECF309503
:1007900021953F4F8DE203C05D9BFECF80E28CB977
:1007A0005D9BFECFC90160E177E20E94270D605D8D
:1007B0006CB95D9BFECFC90160E177E20E94270D15
:1007C00068EE73E00E94270D605D6CB95D9BFECF03
:1007D000C90168EE73E00E94270D64E670E00E9494
:1007E000270D605D6CB95D9BFECFC90164E670E0CA
:1007F0000E94270D6AE070E00E94270D605D6CB9D1
:100800005D9BFECFC9016AE070E00E94270D805D0C
:100810008CB908952F923F924F925F926F927F9280
:100820008F929F92AF92BF92CF92DF92EF92FF9200
:100830000F931F93DF93CF93CDB7DEB728970FB6F3
:10084000F894DEBF0FBECDBF1BB888E08AB996E032
:10085000909395001092900087E689B984E0809388
:1008600074008CE08093700093BF83E882BF81E0C6
:1008700087BF8BE660E00E94BC008AE165E00E94D1
:10088000BC000E948C0180E88FBF0E944F018091C4
:100890005F0290916002A0916102B0916202809328
:1008A000230290932402A0932502B0932602809104
:1008B0005B0290915C02A0915D02B0915E02809318
:1008C000670290936802A0936902B0936A028091D4
:1008D000570290915802A0915902B0915A02809308
:1008E0004A0290934B02A0934C02B0934D02209188
:1008F000450280916B022A83198290E029813A8116
:10090000822B932B9093360280933502809135028F
:100910009091360261E070EC681B790B882777FDB7
:100920008095982F0E94D90A60932702709328021D
:100930008093290290932A0220917D0280911902CE
:100940002C831B8290E0AB81BC818A2B9B2B9093E4
:1009500036028093350260913502709136027095AF
:1009600061957F4F882777FD8095982F0E94D90A3F
:1009700060930C0270930D0280930E0290930F020D
:1009800020912202809134022E831D8290E0ED811D
:10099000FE818E2B9F2B90933602809335026091BF
:1009A000350270913602882777FD8095982F0E9436
:1009B000D90A60933B0270933C0280933D0290936E
:1009C0003E022091560280917C02322E222490E039
:1009D00082299329909336028093350260913502E3
:1009E00070913602882777FD8095982F0E94D90A4A
:1009F000609314027093150280931602909317026D
:100A00002091180280914302522E442490E08429C0
:100A1000952990933602809335026091350270914A
:100A20003602882777FD8095982F0E94D90A609317
:100A300074027093750280937602909377022091EE
:100A400033028091440228871F8290E02F813885ED
:100A5000822B932B9093360280933502609135025E
:100A600070913602882777FD8095982F0E94D90AC9
:100A700060933702709338028093390290933A0260
:100A800060911402709115028091160290911702E4
:100A900020912B0230912C0240912D0250912E0278
:100AA0000E94D50820E030E043E053E40E942D0A84
:100AB00060931402709315028093160290931702AC
:100AC0006091740270917502809176029091770224
:100AD00020911002309111024091120250911302A4
:100AE0000E94D50820E030E043E053E40E942D0A44
:100AF00060937402709375028093760290937702EC
:100B000060913702709138028091390290913A02D7
:100B100020913F02309140024091410250914202A7
:100B20000E94D50820E030E043E053E40E942D0A03
:100B300060933702709338028093390290933A029F
:100B4000A0900C02B0900D02C0900E02D0900F0247
:100B500020912702309128024091290250912A02C7
:100B6000CA01B9010E9433097B018C0120913B022B
:100B700030913C0240913D0250913E02CA01B901C0
:100B80000E9433099B01AC01C801B7010E9406090C
:100B90000E944F0E9B01AC01D7FAD094D7F8D094A5
:100BA000C601B5010E942D0A0E94850D20E030E0AB
:100BB00044E353E40E94330928ED3FE049E450E464
:100BC0000E942D0A609370027093710280937202EA
:100BD00090937302A0902702B0902802C09029023F
:100BE000D0902A0220910C0230910D0240910E0209
:100BF00050910F02CA01B9010E9433097B018C0197
:100C000020913B0230913C0240913D0250913E02C6
:100C1000CA01B9010E9433099B01AC01C801B701A7
:100C20000E9406090E944F0E9B01AC01C601B5014E
:100C30000E942D0A0E94850D20E030E044E353E439
:100C40000E94330928ED3FE049E450E40E942D0A58
:100C500060934E0270934F02809350029093510222
:100C60006091140270911502809116029091170202
:100C7000209108023091090240910A0250910B0222
:100C8000E0902302F09024020091250210912602A8
:100C90000E943309A80197010E940609609363022C
:100CA000709364028093650290936602609174026F
:100CB00070917502809176029091770220910802DE
:100CC0003091090240910A0250910B02E0906702B4
:100CD000F09068020091690210916A020E94330943
:100CE000A80197010E94060960934602709347028B
:100CF00080934802909349026091370270913802C4
:100D00008091390290913A022091080230910902B3
:100D100040910A0250910B02E0904A02F0904B027F
:100D200000914C0210914D020E943309A8019701D5
:100D30000E94060960931E0270931F028093200296
:100D40009093210280E090E0A0E0B0E08093080260
:100D500090930902A0930A02B0930B028FE892ECE1
:100D6000A5E7BFE38093780290937902A0937A027B
:100D7000B0937B02609178027091790280917A023F
:100D800090917B0220916302309164024091650250
:100D900050916602E0907802F090790200917A0218
:100DA00010917B02609070027090710280907202CC
:100DB000909073020E9433095B016C0160E070E067
:100DC00080E89FE3A80197010E94D508A401930140
:100DD0000E9433099B01AC01C601B5010E940609BE
:100DE00060935F027093600280936102909362024D
:100DF000609178027091790280917A0290917B02E1
:100E00002091460230914702409148025091490298
:100E1000E0907802F090790200917A0210917B02C2
:100E200060904E0270904F0280905002909051025C
:100E30000E9433095B016C0160E070E080E89FE391
:100E4000A80197010E94D508A40193010E943309CB
:100E50009B01AC01C601B5010E94060960935B02CB
:100E600070935C0280935D0290935E0280911E02FB
:100E700090911F02A0912002B0912102809357020D
:100E800090935802A0935902B0935A0260915F0266
:100E90007091600280916102909162020E94370B12
:100EA000DC01CB010E94C2035D9BFECF99E09CB99F
:100EB00060915B0270915C0280915D0290915E0294
:100EC0000E94370BDC01CB010E94C2035D9BFECF69
:100ED000A9E0ACB960915702709158028091590213
:100EE00090915A020E94370BDC01CB010E94C20391
:100EF0005D9BFECFBAE0BCB95D9BFECFEDE0ECB9E7
:100F000088EE93E0E0E9F1E03197F1F70197D1F74E
:100F1000BCCCA0E0B0E0EFE8F7E00C944E0DDC01B3
:100F20002B01FA019C91923008F439C1EB018881C0
:100F3000823008F433C1943069F4843009F02FC151
:100F400011969C9111978981981709F428C1A0E006
:100F5000B1E025C1843009F421C18230A9F4923076
:100F600009F01DC19A01AD0188E0EA010990AE01C6
:100F7000E90109929E018150C1F7E2018981119630
:100F80009C918923818308C1923009F407C112968C
:100F90002D903C901397EB018A819B811496AD9024
:100FA000BD90CD90DC901797EC80FD800E811F8165
:100FB0009101281B390BB90137FF04C06627772739
:100FC000621B730B603271050CF061C012161306C0
:100FD0006CF537014801062E04C0969487947794E7
:100FE00067940A94D2F721E030E040E050E004C07A
:100FF000220F331F441F551F6A95D2F721503040EE
:10100000404050402E213F214023512321153105DE
:101010004105510521F021E030E040E050E0790148
:101020008A01E628F728082919293CC0232BD1F189
:10103000260E371E35014601062E04C0969487946D
:10104000779467940A94D2F721E030E040E050E0D2
:1010500004C0220F331F441F551F6A95D2F7215039
:101060003040404050402A213B214C215D21211538
:1010700031054105510521F021E030E040E050E02C
:1010800059016A01A628B728C828D9280BC082159B
:1010900093052CF01C01AA24BB24650103C0EE2497
:1010A000FF24870111969C91D20111968C9198177B
:1010B00009F445C0992339F0A80197012A193B0981
:1010C0004C095D0906C0A60195012E193F09400B88
:1010D000510B57FD08C0118233822282248335834D
:1010E000468357831DC081E0818333822282882713
:1010F0009927DC01821B930BA40BB50B848395838A
:10110000A683B7830DC0220F331F441F551F2483AE
:1011100035834683578382819381019793838283AA
:101120002481358146815781DA01C9010197A109DE
:10113000B1098F5F9F4FAF4FBF4328F30BC091831F
:1011400033822282EA0CFB1C0C1D1D1DE482F582F9
:101150000683178383E0808324813581468157810C
:1011600057FF1AC0C901AA2797FDA095BA2F817011
:101170009070A070B0705695479537952795822B43
:10118000932BA42BB52B84839583A683B78382816D
:101190009381019693838283DF0101C0D201CD0147
:1011A000CDB7DEB7E2E10C946A0DA0E2B0E0EBED62
:1011B000F8E00C945A0D69837A838B839C832D838A
:1011C0003E834F835887E9E0EE2EF12CEC0EFD1E96
:1011D000CE010196B7010E94AF0C8E010F5E1F4F2A
:1011E000CE010596B8010E94AF0C8A8991E089274B
:1011F0008A8BC701B801AE01475E5F4F0E94890725
:101200000E94DA0BA096E6E00C94760DA0E2B0E026
:10121000ECE0F9E00C945A0D69837A838B839C830C
:101220002D833E834F835887F9E0EF2EF12CEC0E8F
:10123000FD1ECE010196B7010E94AF0C8E010F5E1C
:101240001F4FCE010596B8010E94AF0CC701B8012F
:10125000AE01475E5F4F0E9489070E94DA0BA0969D
:10126000E6E00C94760DA0E2B0E0E9E3F9E00C943E
:101270004E0D69837A838B839C832D833E834F83BA
:101280005887CE010196BE01675F7F4F0E94AF0C69
:10129000CE010596BE016F5E7F4F0E94AF0C99850F
:1012A000923088F089898230C8F0943019F4823005
:1012B00051F404C0843029F4923081F480E091E04C
:1012C000C6C0923049F420E09A858A89981321E0BB
:1012D0002A87CE010996BBC0823049F420E09A8566
:1012E0008A89981321E02A8BCE014196B0C02D84C3
:1012F0003E844F8458886D887E888F88988CEE2431
:10130000FF248701AA24BB24650140E050E060E08F
:1013100070E0E0E0F0E0C10181709070892BE9F0AD
:10132000E60CF71C081D191D9A01AB012A0D3B1D87
:101330004C1D5D1D80E090E0A0E0B0E0E614F704F5
:101340000805190520F481E090E0A0E0B0E0BA01C2
:10135000A901480F591F6A1F7B1FAA0CBB1CCC1C7C
:10136000DD1C97FE08C081E090E0A0E0B0E0A82A74
:10137000B92ACA2ADB2A3196E032F10549F0660C17
:10138000771C881C991C5694479437942794C3CF94
:10139000FA85EA892B893C898B859C85280F391F22
:1013A0002E5F3F4F17C0CA0181709070892B61F08A
:1013B00016950795F794E79480E090E0A0E0B0E8F8
:1013C000E82AF92A0A2B1B2B76956795579547959E
:1013D0002F5F3F4F77FDE7CF0CC0440F551F661FAF
:1013E000771F17FD4160EE0CFF1C001F111F2150DD
:1013F0003040403090E0590790E0690790E4790769
:1014000060F32B8F3C8FDB01CA018F779070A07047
:10141000B07080349105A105B10561F447FD0AC0A3
:10142000E114F1040105110529F0405C5F4F6F4F95
:101430007F4F40781A8EFE1711F081E08A8F4D8F12
:101440005E8F6F8F78A383E0898FCE0149960E94CB
:10145000DA0BA096E2E10C946A0DA8E1B0E0E3E3B8
:10146000FAE00C94560D69837A838B839C832D83D9
:101470003E834F835887B9E0EB2EF12CEC0EFD1E16
:10148000CE010196B7010E94AF0C8E010F5E1F4F77
:10149000CE010596B8010E94AF0C2985223008F4D0
:1014A0007EC03989323010F4B8017CC08A859A89AF
:1014B00089278A87243011F0223031F4231709F06C
:1014C0006EC060E071E06EC0343039F41D861E8657
:1014D0001F86188A1C861B8604C0323021F484E0E3
:1014E0008987B7015FC02B853C858B899C89281B28
:1014F000390B3C872B87ED84FE840F851889AD88D6
:10150000BE88CF88D88CEA14FB040C051D0540F476
:10151000EE0CFF1C001F111F215030403C872B8711
:1015200020E030E040E050E080E090E0A0E0B0E477
:1015300060E070E0EA14FB040C051D0540F0282B68
:10154000392B4A2B5B2BEA18FB080C091D09B695B1
:10155000A79597958795EE0CFF1C001F111F6F5FD5
:101560007F4F6F31710531F7DA01C9018F779070C4
:10157000A070B07080349105A105B10561F427FD1C
:101580000AC0E114F1040105110529F0205C3F4F68
:101590004F4F5F4F20782D873E874F87588BBE0176
:1015A000675F7F4FCB010E94DA0B6896EAE00C94EC
:1015B000720DA8E0B0E0EFEDFAE00C94570D9B013E
:1015C000AC0183E08983DA01C9018827B7FD8395DF
:1015D0009927AA27BB27B82E2115310541055105AA
:1015E00019F482E089833AC08823A9F0203080E092
:1015F000380780E0480780E8580729F460E070E089
:1016000080E09FEC30C0EE24FF248701E21AF30A49
:10161000040B150B02C079018A018EE1C82ED12C72
:10162000DC82CB82ED82FE820F831887C801B7016E
:101630000E948B0B01971816190684F4082E04C01B
:10164000EE0CFF1C001F111F0A94D2F7ED82FE82E0
:101650000F831887C81AD90ADC82CB82BA82CE01DE
:1016600001960E94DA0B2896E9E00C94730DACE029
:10167000B0E0EDE3FBE00C945E0D69837A838B832D
:101680009C83CE010196BE016B5F7F4F0E94AF0C21
:101690008D81823061F1823050F1843021F48E816D
:1016A000882351F12EC02F81388537FD20C06E81EF
:1016B0002F3131051CF06623F9F023C08EE190E054
:1016C000821B930B29853A854B855C8504C0569512
:1016D0004795379527958A95D2F76623B1F05095AF
:1016E0004095309521953F4F4F4F5F4F0EC020E002
:1016F00030E040E050E009C02FEF3FEF4FEF5FE7F1
:1017000004C020E030E040E050E8B901CA012C9666
:10171000E2E00C947A0DEF92FF920F931F937B01FE
:101720008C0180E0E81680E0F80681E0080780E0A0
:10173000180788F48FEFE816F1040105110531F060
:1017400028F088E090E0A0E0B0E017C080E090E0F2
:10175000A0E0B0E012C080E0E81680E0F80680E08B
:10176000080781E0180728F088E190E0A0E0B0E0E9
:1017700004C080E190E0A0E0B0E020E230E040E092
:1017800050E0281B390B4A0B5B0B04C016950795DC
:10179000F794E7948A95D2F7F701E85FFE4F8081CE
:1017A000281B310941095109C9011F910F91FF906F
:1017B000EF900895DF92EF92FF920F931F93FC0139
:1017C000E480F58006811781D1808081823048F4E1
:1017D00080E090E0A0E1B0E0E82AF92A0A2B1B2B78
:1017E000A5C0843009F49FC0823021F4EE24FF2488
:1017F000870105C0E114F1040105110519F4E0E0C9
:10180000F0E096C0628173819FEF623879070CF037
:101810005BC022E83FEF261B370B2A3131052CF045
:1018200020E030E040E050E02AC0B801A701022EDD
:1018300004C076956795579547950A94D2F781E04D
:1018400090E0A0E0B0E004C0880F991FAA1FBB1F62
:101850002A95D2F70197A109B1098E219F21A023D2
:10186000B1230097A105B10521F081E090E0A0E04F
:10187000B0E09A01AB01282B392B4A2B5B2BDA0104
:10188000C9018F779070A070B07080349105A10568
:10189000B10539F427FF09C0205C3F4F4F4F5F4F20
:1018A00004C0215C3F4F4F4F5F4FE0E0F0E020303D
:1018B000A0E03A07A0E04A07A0E45A0710F0E1E0F0
:1018C000F0E079018A0127C06038710564F5FB01F9
:1018D000E158FF4FD801C7018F779070A070B070AA
:1018E00080349105A105B10539F4E7FE0DC080E40F
:1018F00090E0A0E0B0E004C08FE390E0A0E0B0E0B2
:10190000E80EF91E0A1F1B1F17FF05C01695079545
:10191000F794E794319687E016950795F794E79446
:101920008A95D1F705C0EE24FF248701EFEFF0E0A0
:101930006E2F679566276795902F9F77D794DD2444
:10194000D7948E2F8695492F462B582F5D29B701A6
:10195000CA011F910F91FF90EF90DF900895FC0155
:10196000DB01408151812281622F6F7770E0221F5D
:101970002227221F9381892F880F822B282F30E066
:10198000991F9927991F11969C931197211531053D
:10199000A9F5411551056105710511F482E037C0C3
:1019A00082E89FEF13969C938E9312979A01AB0156
:1019B00067E0220F331F441F551F6A95D1F783E05C
:1019C0008C930DC0220F331F441F551F12968D910B
:1019D0009C911397019713969C938E9312972030A6
:1019E00080E0380780E0480780E4580758F31496F1
:1019F0002D933D934D935C93179708952F3F310599
:101A000079F4411551056105710519F484E08C9351
:101A1000089564FF03C081E08C9312C01C9210C033
:101A20002F57304013963C932E93129783E08C935C
:101A300087E0440F551F661F771F8A95D1F77064A2
:101A400014964D935D936D937C931797089597FB30
:101A5000092E07260AD077FD04D00CD006D000202E
:101A60001AF4709561957F4F0895F6F790958195DA
:101A70009F4F0895AA1BBB1B51E107C0AA1FBB1FA4
:101A8000A617B70710F0A61BB70B881F991F5A950A
:101A9000A9F780959095BC01CD0108952F923F92B2
:101AA0004F925F926F927F928F929F92AF92BF926E
:101AB000CF92DF92EF92FF920F931F93CF93DF931A
:101AC000CDB7DEB7CA1BDB0B0FB6F894DEBF0FBE77
:101AD000CDBF09942A88398848885F846E847D84C4
:101AE0008C849B84AA84B984C884DF80EE80FD80C6
:101AF0000C811B81AA81B981CE0FD11D0FB6F8943C
:101B0000DEBF0FBECDBFED010895DF93DD27B92FF6
:101B1000BF7740E85FE31616170648075B0710F427
:101B2000D92F51D09F938F937F936F93F6D0ECE88A
:101B3000F0E013D037D02F913F914F915F9154D067
:101B4000DD2349F09058A2EA2AED3FE049EC5FE33B
:101B5000D0785D27F2D0DF9125C0DF93CF931F931C
:101B60000F93FF92EF92DF927B018C01689405C086
:101B7000DA2EEF0139D0FE01E894A5912591359137
:101B800045915591AEF3EF01D8D0FE019701A80120
:101B9000DA9479F7DF90EF90FF900F911F91CF913A
:101BA000DF910895092E0394000C11F4882352F05C
:101BB000BB0F40F4BF2B11F460FF04C06F5F7F4F79
:101BC0008F4F9F4F08959B01AC0160E070E080E86B
:101BD0009FE343CC23D128F028D118F0952309F0B6
:101BE000FFC012C111244BC127D1A0F3959FD1F39F
:101BF000950F50E0551F629FF001729FBB27F00DBB
:101C0000B11D639FAA27F00DB11DAA1F649F66270F
:101C1000B00DA11D661F829F2227B00DA11D621F5E
:101C2000739FB00DA11D621F839FA00D611D221F18
:101C3000749F3327A00D611D231F849F600D211DFC
:101C4000822F762F6A2F11249F5750408AF0E1F09F
:101C500088234AF0EE0FFF1FBB1F661F771F881FE8
:101C600091505040A9F79E3F510570F0B9C007C18F
:101C70005F3FECF3983EDCF3869577956795B795D3
:101C8000F795E7959F5FC1F7FE2B880F911D9695FD
:101C9000879597F9089511F40EF4B6C0A7C0D4D073
:101CA000D0F39923D9F3CEF39F57550B87FFAFD0CD
:101CB0000024A0E640EA900180585695979528F4B4
:101CC000805C660F771F881F20F0261737074807AC
:101CD00030F4621B730B840B202931294A2BA69503
:101CE00017940794202531254A2758F7660F771F48
:101CF000881F20F026173707480730F4620B730B54
:101D0000840B200D311D411DA09581F7B901842F51
:101D10009158880F9695879508959B01AC01A3CAA9
:101D20007DD030F082D020F031F49F3F11F41EF4CA
:101D30006BC00EF4E095E7FB53C0E92F7DD080F334
:101D4000BA17620773078407950718F071F49EF5B8
:101D500095C00EF4E0950B2EBA2FA02D0B01B90102
:101D600090010C01CA01A0011124FF27591B99F011
:101D7000593F50F4503E68F11A16F040A22F232F1D
:101D8000342F4427585FF3CF469537952795A7956D
:101D9000F0405395C9F77EF41F16BA0B620B730B14
:101DA000840BBAF09150A1F0FF0FBB1F661F771F85
:101DB000881FC2F70EC0BA0F621F731F841F48F43A
:101DC000879577956795B795F7959E3F08F0B3CFC0
:101DD0009395880F08F09927EE0F979587950895AA
:101DE00097F99F6780E870E060E008959F3F31F0C9
:101DF000915020F4879577956795B795880F911D39
:101E00009695879597F908959FEF80EC08959150E6
:101E10005040660F771F881FD2F7089500240A9458
:101E20001616170618060906089500240A941216B5
:101E3000130614060506089557FD9058440F551FC4
:101E400059F05F3F71F04795880F97FB991F61F03C
:101E50009F3F79F087950895121613061406551FB3
:101E6000F2CF4695F1DF08C0161617061806991F1F
:101E7000F1CF86957105610508940895E894BB2714
:0E1E800066277727CB0197F90895F894FFCFD6
:101E8E000000000000000000000102020303030333
:101E9E0004040404040404040505050505050505EC
:101EAE0005050505050505050606060606060606CC
:101EBE0006060606060606060606060606060606B4
:101ECE00060606060606060607070707070707079C
:101EDE000707070707070707070707070707070784
:101EEE000707070707070707070707070707070774
:101EFE000707070707070707070707070707070764
:101F0E00070707070707070708080808080808084B
:101F1E000808080808080808080808080808080833
:101F2E000808080808080808080808080808080823
:101F3E000808080808080808080808080808080813
:101F4E000808080808080808080808080808080803
:101F5E0008080808080808080808080808080808F3
:101F6E0008080808080808080808080808080808E3
:101F7E0008080808080808080808080808080808D3
:081F8E0008080808080808080B
:00000001FF
